{
  "contractName": "StringUtils",
  "abi": [
    {
      "constant": true,
      "inputs": [
        {
          "name": "_a",
          "type": "string"
        },
        {
          "name": "_b",
          "type": "string"
        }
      ],
      "name": "compare",
      "outputs": [
        {
          "name": "",
          "type": "int256"
        }
      ],
      "payable": false,
      "stateMutability": "pure",
      "type": "function"
    },
    {
      "constant": true,
      "inputs": [
        {
          "name": "_a",
          "type": "string"
        },
        {
          "name": "_b",
          "type": "string"
        }
      ],
      "name": "equal",
      "outputs": [
        {
          "name": "",
          "type": "bool"
        }
      ],
      "payable": false,
      "stateMutability": "pure",
      "type": "function"
    },
    {
      "constant": true,
      "inputs": [
        {
          "name": "_haystack",
          "type": "string"
        },
        {
          "name": "_needle",
          "type": "string"
        }
      ],
      "name": "indexOf",
      "outputs": [
        {
          "name": "",
          "type": "int256"
        }
      ],
      "payable": false,
      "stateMutability": "pure",
      "type": "function"
    }
  ],
  "bytecode": "0x6108b1610030600b82828239805160001a6073146000811461002057610022565bfe5b5030600052607381538281f300730000000000000000000000000000000000000000301460806040526004361061006e576000357c0100000000000000000000000000000000000000000000000000000000900463ffffffff1680633a96fdd71461007357806346bdca9a146101295780638a0807b7146101e3575b600080fd5b610113600480360381019080803590602001908201803590602001908080601f0160208091040260200160405190810160405280939291908181526020018383808284378201915050505050509192919290803590602001908201803590602001908080601f0160208091040260200160405190810160405280939291908181526020018383808284378201915050505050509192919290505050610299565b6040518082815260200191505060405180910390f35b6101c9600480360381019080803590602001908201803590602001908080601f0160208091040260200160405190810160405280939291908181526020018383808284378201915050505050509192919290803590602001908201803590602001908080601f0160208091040260200160405190810160405280939291908181526020018383808284378201915050505050509192919290505050610550565b604051808215151515815260200191505060405180910390f35b610283600480360381019080803590602001908201803590602001908080601f0160208091040260200160405190810160405280939291908181526020018383808284378201915050505050509192919290803590602001908201803590602001908080601f0160208091040260200160405190810160405280939291908181526020018383808284378201915050505050509192919290505050610566565b6040518082815260200191505060405180910390f35b60006060806000808693508592508351915081835110156102b957825191505b600090505b818110156104fc5782818151811015156102d457fe5b9060200101517f010000000000000000000000000000000000000000000000000000000000000090047f0100000000000000000000000000000000000000000000000000000000000000027effffffffffffffffffffffffffffffffffffffffffffffffffffffffffffff1916848281518110151561034f57fe5b9060200101517f010000000000000000000000000000000000000000000000000000000000000090047f0100000000000000000000000000000000000000000000000000000000000000027effffffffffffffffffffffffffffffffffffffffffffffffffffffffffffff191610156103ea577fffffffffffffffffffffffffffffffffffffffffffffffffffffffffffffffff9450610546565b82818151811015156103f857fe5b9060200101517f010000000000000000000000000000000000000000000000000000000000000090047f0100000000000000000000000000000000000000000000000000000000000000027effffffffffffffffffffffffffffffffffffffffffffffffffffffffffffff1916848281518110151561047357fe5b9060200101517f010000000000000000000000000000000000000000000000000000000000000090047f0100000000000000000000000000000000000000000000000000000000000000027effffffffffffffffffffffffffffffffffffffffffffffffffffffffffffff191611156104ef5760019450610546565b80806001019150506102be565b82518451101561052e577fffffffffffffffffffffffffffffffffffffffffffffffffffffffffffffffff9450610546565b8251845111156105415760019450610546565b600094505b5050505092915050565b60008061055d8484610299565b14905092915050565b6000606080600080869350859250600184511080610585575060018351105b80610591575083518351115b156105be577fffffffffffffffffffffffffffffffffffffffffffffffffffffffffffffffff945061087b565b6fffffffffffffffffffffffffffffffff845111156105ff577fffffffffffffffffffffffffffffffffffffffffffffffffffffffffffffffff945061087b565b60009150600090505b83518110156108575782600081518110151561062057fe5b9060200101517f010000000000000000000000000000000000000000000000000000000000000090047f0100000000000000000000000000000000000000000000000000000000000000027effffffffffffffffffffffffffffffffffffffffffffffffffffffffffffff1916848281518110151561069b57fe5b9060200101517f010000000000000000000000000000000000000000000000000000000000000090047f0100000000000000000000000000000000000000000000000000000000000000027effffffffffffffffffffffffffffffffffffffffffffffffffffffffffffff1916141561084a57600191505b82518210801561072557508351828201105b80156108265750828281518110151561073a57fe5b9060200101517f010000000000000000000000000000000000000000000000000000000000000090047f0100000000000000000000000000000000000000000000000000000000000000027effffffffffffffffffffffffffffffffffffffffffffffffffffffffffffff1916848383018151811015156107b757fe5b9060200101517f010000000000000000000000000000000000000000000000000000000000000090047f0100000000000000000000000000000000000000000000000000000000000000027effffffffffffffffffffffffffffffffffffffffffffffffffffffffffffff1916145b15610838578180600101925050610713565b82518214156108495780945061087b565b5b8080600101915050610608565b7fffffffffffffffffffffffffffffffffffffffffffffffffffffffffffffffff94505b50505050929150505600a165627a7a723058201f4a676453408611337e39b5cce168a37aa7688704d8b00634e173f050a843e00029",
  "source": "pragma solidity ^0.4.24;\r\n\r\nlibrary StringUtils {\r\n  /// @dev Does a byte-by-byte lexicographical comparison of two strings.\r\n  /// @return a negative number if `_a` is smaller, zero if they are equal\r\n  /// and a positive numbe if `_b` is smaller.\r\n  function compare(string _a, string _b) public pure returns (int) {\r\n      bytes memory a = bytes(_a);\r\n      bytes memory b = bytes(_b);\r\n      uint minLength = a.length;\r\n      if (b.length < minLength) minLength = b.length;\r\n      //@todo unroll the loop into increments of 32 and do full 32 byte comparisons\r\n      for (uint i = 0; i < minLength; i ++)\r\n        if (a[i] < b[i])\r\n          return -1;\r\n        else if (a[i] > b[i])\r\n          return 1;\r\n      if (a.length < b.length)\r\n        return -1;\r\n      else if (a.length > b.length)\r\n        return 1;\r\n      else\r\n        return 0;\r\n  }\r\n  /// @dev Compares two strings and returns true iff they are equal.\r\n  function equal(string _a, string _b) public pure returns (bool) {\r\n      return compare(_a, _b) == 0;\r\n  }\r\n  /// @dev Finds the index of the first occurrence of _needle in _haystack\r\n  function indexOf(string _haystack, string _needle) public pure returns (int)\r\n  {\r\n    bytes memory h = bytes(_haystack);\r\n    bytes memory n = bytes(_needle);\r\n    if(h.length < 1 || n.length < 1 || (n.length > h.length)) \r\n      return -1;\r\n    // since we have to be able to return -1 (if the char isn't found or input error), \r\n    // this function must return an \"int\" type with a max length of (2^128 - 1)\r\n    else if(h.length > (2**128 -1)) \r\n      return -1;                                  \r\n    else\r\n    {\r\n      uint subindex = 0;\r\n      for (uint i = 0; i < h.length; i ++)\r\n      {\r\n        if (h[i] == n[0]) // found the first char of b\r\n        {\r\n          subindex = 1;\r\n          // search until the chars don't match or until we reach the end of a or b\r\n          while(subindex < n.length && (i + subindex) < h.length && h[i + subindex] == n[subindex]) \r\n          {\r\n            subindex++;\r\n          }   \r\n          if(subindex == n.length)\r\n            return int(i);\r\n        }\r\n      }\r\n      return -1;\r\n    }   \r\n  }\r\n}",
  "sourcePath": "/mnt/c/Users/Satyam/Desktop/BBDSMS/Project2/contracts/StringUtils.sol",
  "compiler": {
    "name": "solc",
    "version": "0.4.24+commit.e67f0147.Emscripten.clang"
  },
  "schemaVersion": "2.0.1",
  "updatedAt": "2023-02-04T22:17:57.053Z"
}